:100000000C947D050C94C4050C94C4050C94C40593
:100010000C94C4050C94C4050C94C4050C94C4053C
:100020000C94C4050C94C4050C945E2F0C943230CF
:100030000C948D2A0C94C4050C94C4050C94C4052E
:100040000C94C4050C94C4050C94C4050C94C4050C
:100050000C94C4050C94E42A0C94C4050C94C405B7
:100060000C94C4050C94C4050C94C4050C94C405EC
:100070000C94C4050C94C4050C94C4050C94C405DC
:100080000C94C4050C94C4050C94C4050C94C405CC
:100090000C94C4050C94C4050C94C4050C94C405BC
:1000A0000C94C4050C94C4050C94C405556E646589
:1000B00066696E65640A00524742204D6F64652090
:1000C000656E61626C65640A416464656420323502
:1000D00025206D6F726520506F7765720A00524758
:1000E0004220636F6E6669670A00423D3D3D3D3DBB
:1000F0003D3D3D440A0A0046756E6374696F6E208B
:100100004C617965720A004C617965723A0A00A8FF
:1001100000115011502701680069006A006B000649
:100120000119016E006F00CA5C10501050CB5CC307
:100130005CC45CC55C0100CE5CD55CCF5CD05C006F
:10014000000000000000002A2B2800000000000032
:100150000000000000000000000029000000002C4A
:100160001E3420212224342627252E362D373827E9
:100170001E1F202122232425263333362E37381FF5
:100180000405060708090A0B0C0D0E0F10111213B7
:100190001415161718191A1B1C1D2F3130232D3555
:1001A0000405060708090A0B0C0D0E0F1011121397
:1001B0001415161718191A1B1C1D2F3130354C0039
:1001C000000000000000000000000000000000002F
:1001D000000000000000000000000000000000001F
:1001E0000000007E0F00D4FFFFFFC7000000780072
:1001F000047F3F1F643214643214783C1E1E140ABC
:10020000052223252628292A2C2D2F303233353656
:10021000383A3B3D3E4042434547494A4C4E505197
:10022000535557595A5C5E6062646668696B6D6FBE
:1002300071737577797B7D7F81838587898A8C8EC1
:1002400090929496989A9C9E9FA1A3A5A7A8AAACC9
:10025000AEAFB1B3B4B6B8B9BBBCBEBFC1C2C3C503
:10026000C6C7C9CACBCCCDCED0D1D2D2D3D4D5D6A5
:10027000D7D7D8D9D9DADADBDBDBDCDCDCDCDCDDD8
:10028000DDDDDDDCDCDCDCDCDBDBDBDADAD9D9D8BC
:10029000D7D7D6D5D4D3D2D2D1D0CECDCCCBCAC954
:1002A000C7C6C5C3C2C1BFBEBCBBB9B8B6B4B3B183
:1002B000AFAEACAAA8A7A5A3A19F9E9C9A9896941E
:1002C00092908E8C8A89878583817F7D7B797775F3
:1002D00073716F6D6B6968666462605E5C5A5957D2
:1002E000555351504E4C4A4947454342403E3D3B91
:1002F0003A3836353332302F2D2C2A29282625231B
:1003000022FFAA7F55400001010101010101010105
:1003100002020202020202020203030303030303B6
:100320000304040404040404050505050506060683
:100330000606070707070708080808090909090A40
:100340000A0A0B0B0B0C0C0C0D0D0D0E0E0E0F0FE5
:100350000F10101111111212131314141515161673
:100360001717181819191A1A1B1B1C1D1D1E1E1FE2
:100370002020212222232424252626272829292A31
:100380002B2C2D2D2E2F3031323233343536373859
:10039000393A3B3C3D3E3F40414243444546474855
:1003A000494A4C4D4E4F50515354555658595A5B2B
:1003B0005D5E5F616264656668696B6C6D6F7072CB
:1003C000737577787A7B7D7E8082838587888A8C37
:1003D0008E8F91939596989A9C9EA0A2A3A5A7A96B
:1003E000ABADAFB1B3B5B7BABCBEC0C2C4C6C9CB62
:1003F000CDCFD1D4D6D8DBDDDFE2E4E7E9EBEEF018
:10040000F3F5F8FAFDFF00AE00AF00DA0281FFD984
:10041000F1DB20A4A62EAF00A0C000A1C800AED57D
:1004200080A81FD300408D14200007087F08070014
:100430003E5B4F5B3E003E6B4F6B3E001C3E7C3E86
:100440001C00183C7E3C18001C577D571C001C5E8D
:100450007F5E1C0000183C180000FFE7C3E7FF00A8
:10046000001824180000FFE7DBE7FF0030483A06D9
:100470000E00262979292600407F05050700407FC8
:1004800005253F005A3CE73C5A007F3E1C1C0800F3
:10049000081C1C3E7F0014227F2214005F5F005F57
:1004A0005F0006097F017F00006689956A00606031
:1004B0006060600094A2FFA2940008047E0408001B
:1004C00010207E20100008082A1C0800081C2A089A
:1004D00008001E10101010000C1E0C1E0C003038EE
:1004E0003E383000060E3E0E060000000000000000
:1004F00000005F000000000700070000147F147F69
:100500001400242A7F2A120023130864620036494B
:1005100056205000000807030000001C2241000084
:100520000041221C00002A1C7F1C2A0008083E08EB
:10053000080000807030000008080808080000006B
:10054000606000002010080402003E5149453E0052
:1005500000427F4000007249494946002141494D0F
:1005600033001814127F10002745454539003C4AD6
:1005700049493100412111090700364949493600EE
:10058000464949291E0000001400000000403400C4
:100590000000000814224100141414141400004137
:1005A000221408000201590906003E415D594E001F
:1005B0007C1211127C007F49494936003E4141417D
:1005C00022007F4141413E007F49494941007F0966
:1005D000090901003E41415173007F0808087F006E
:1005E00000417F4100002040413F01007F0814226C
:1005F00041007F40404040007F021C027F007F049A
:1006000008107F003E4141413E007F090909060074
:100610003E4151215E007F0919294600264949497A
:10062000320003017F0103003F4040403F001F2094
:1006300040201F003F4038403F006314081463000F
:100640000304780403006159494D4300007F414190
:100650004100020408102000004141417F000402D3
:100660000102040040404040400000030708000031
:100670002054547840007F2844443800384444448F
:100680002800384444287F00385454541800000887
:100690007E09020018A4A49C78007F080404780056
:1006A00000447D4000002040403D00007F10284471
:1006B000000000417F4000007C04780478007C0842
:1006C00004047800384444443800FC1824241800FA
:1006D00018242418FC007C080404080048545454CE
:1006E000240004043F4424003C4040207C001C20A3
:1006F00040201C003C4030403C004428102844006E
:100700004C9090907C004464544C44000008364166
:1007100000000000770000000041360800000201E0
:10072000020402003C2623263C00000000000000DA
:10073000404040F0F8F8FF38FFF8F83FF8F8FF388D
:10074000FFF8F8F040404000000000000080C0C00A
:10075000C0800000C0C08000000080C0C000C0C0D9
:10076000000080C0C00000000000C0C0C0C0C000C9
:10077000C0C00000000000000000000000000000F9
:100780000000000000000000000000000000000069
:100790000000000000000000000000000000000059
:1007A000000000000000000000C0F0F8FC3E1E0643
:1007B000010000007F4141417F007F4141417F00B6
:1007C0000080C0E07E5B4F5BFEC00000C000DCD755
:1007D000DEDEDED7DC00C00000000000000000000C
:1007E0000000000000000000000000000000000009
:1007F000494949FFFFFFFFE0DFBFBF00BFBFDFE0A8
:10080000FFFFFFFF49494900000000001F3F6060F3
:10081000E0BF1F007F7F071E381E077F7F007F7F9E
:100820000E1F3B716000000000007F7F0C0C0C006D
:100830007E7E007F7E0303007F7E03037E7E0303B4
:100840007F7E000F3E703C063C703E0F00327B49BD
:10085000493F7E007F7E0303001E3F69696F2600CB
:10086000000000000000000000030F1F3F3C7870F4
:10087000600000007F4141417F007F4141417F0096
:10088000307B7F7830202030787F3B0003000F7F63
:100890000F0F0F7F0F00030000000000000000009A
:1008A0000000000000000000000000000000000048
:1008B000010101070F0F7F0F7F0F0F7E0F0F7F0FBB
:1008C0007F0F0F0701010100000000000000000081
:1008D0000001010000000000000000000000000016
:1008E0000000000000000000000000000000000008
:1008F00000000000000000000000000000000000F8
:1009000000000000000000000000000000000000E7
:1009100000000000000000000000000000000000D7
:1009200000000000000000000000000000000000C7
:1009300000000000000000000000000000000000B7
:1009400000000000000000000000000000000000A7
:100950000000000000000000000000000000000097
:10096000000000000000000000002E0350004300C3
:100970002000440065007300740072006F0079006D
:100980006500720020004D00610072006B002000C5
:1009900066006900760065000000160353006100E0
:1009A00068006900620061006200640075006C000C
:1009B00000000403090409023B00020100A0FA0937
:1009C000040000010301010009211101000122407E
:1009D000000705810308000A090401000103000063
:1009E0000009211101000122B60007058203200041
:1009F0000A1201000200000008EDFE200469000157
:100A000002000105010902A10185020901A10005F9
:100A100009190129081500250195087501810205AC
:100A200001093009311581257F9502750881060974
:100A3000381581257F950175088106050C0A380255
:100A40001581257F950175088106C0C005010980C3
:100A5000A101850319012AB700150126B7009501E8
:100A600075108100C0050C0901A101850419012A36
:100A7000A002150126A002950175108100C0050194
:100A80000906A1018505050719E029E715002501DB
:100A90009508750181020507190029EF1500250148
:100AA00095F0750181020508190129059505750163
:100AB0009102950175039101C005010906A1010587
:100AC0000719E029E71500250195087501810295B0
:100AD00001750881010507190029FF150026FF008F
:100AE0009506750881000508190129059505750108
:100AF0009102950175039101C00011241FBECFEF33
:100B0000DAE0DEBFCDBF04B603FE27C080912A0520
:100B100090912B05A0912C05B0912D058730904B1D
:100B2000A740B04BD1F410922A0510922B051092D9
:100B30002C0510922D0514BE84B7877F84BF0FB695
:100B4000F894A8958091600088618093600010926D
:100B500060000FBEE0E0F8E3099511E0A0E0B1E02D
:100B6000E8E2F6E602C005900D92AA3DB107D9F77A
:100B700025E0AAEDB1E001C01D92AA32B207E1F76B
:100B80000E949C170C94EA320C94000090E080E0E4
:100B900008950895089581E008950895CF93DF930F
:100BA000D82FC62F6091E7017091E8018091E9018B
:100BB0009091EA010E94D807882331F08130C1F07A
:100BC00081E0DF91CF910895D11109C08AEA90E0C8
:100BD000C11102C089EA90E00E949506F1CFD130A0
:100BE00079F789EF91E0C111F7CF8AEF91E0F4CF67
:100BF000D11107C086EC9CE5C111EECF87EC9CE5D6
:100C0000EBCFD130E9F688EC9CE5C111E5CF89EC5A
:100C10009CE5E2CF60E087E091E00E94C52360910F
:100C2000E7017091E8018091E9019091EA010E9449
:100C3000D807882339F0813079F060E08CEA90E0C1
:100C40000C94D72360E087EF90E00E94C52360E01A
:100C50008AEE90E00C94C52360E08EED90E00E9457
:100C6000C52360E087EB90E0F5CF9C013A95211514
:100C70003F4150F5FC01EE27F170BC016627727010
:100C8000AC01442754709C012227387094FF0EC099
:100C900080E1EF2B09F480E0672B09F08062452B9F
:100CA00009F08064232B89F08068089581E0EF2BA0
:100CB00009F480E0672B09F08260452B09F084601D
:100CC000232B19F08860089580E00895CF93DF9377
:100CD000EC010E9435069E01205E31092830310565
:100CE00010F0209739F40E947E098C2FDF91CF916C
:100CF0000C9477080E94E10BF8CFCF93DF93EC01BF
:100D00000E940909CE010E9435069E01205E31092C
:100D10002830310510F0CD2B21F4DF91CF910C94C8
:100D20008509DF91CF910C94E80BCF93DF93EC0111
:100D30000E946606CE01DF91CF910C947D0681E082
:100D400008950C94CB0508950C94A3061F93CF939C
:100D5000DF9300D000D00F92CDB7DEB749835A831E
:100D60006B833091DC0189819A8131111DC066232A
:100D7000B9F02223A9F00E94AF0D182F682F8981A6
:100D80009A810E945C0D69817A81812F0F900F906A
:100D90000F900F900F90DF91CF911F910C9414142E
:100DA0000E94880D182FEFCF0E94AF0D69817A81C4
:100DB000EDCFFC01262F40815181628173818481B6
:100DC0000C94A60681E00895CF93DF93EC0160E0D8
:100DD0000E94D906BE01DF91CF910C94A4060E9417
:100DE0003E160E942B080E9454250C9462160C9407
:100DF000641608950E94050C0E94F9062FEF84E303
:100E00009CE0215080409040E1F700C000000C942D
:100E1000082B0F931F93CF93DF938C0161E00E9407
:100E2000D906EC01B8010E94A106882309F441C04B
:100E3000B801CE010E94DF258823D9F1B801CE0187
:100E40000E9469268823A9F1B801CE010E94BB2621
:100E5000882379F1B801CE010E94E527882349F162
:100E6000B801CE010E945B20882319F1F80182812C
:100E7000882361F0CB35FDE5DF0721F170F4C11562
:100E8000ECE5DE07A1F0CF3DDC45C9F0C801DF91FC
:100E9000CF911F910F910C949F06CC358DE5D8070B
:100EA000A1F0CD35DD4591F70E948C11EFCF0E9466
:100EB000FA0680E0DF91CF911F910F9108950E9473
:100EC0000613F7CF0E949511E1CF0E949811DECF53
:100ED000DF92EF92FF920F931F93CF93DF93E82F50
:100EE000F0E0E15CFE4FD490282F269526952695BC
:100EF00030E0F901E152FE4F0491877010E0082EB6
:100F000002C0159507950A94E2F701701127F901BF
:100F1000E153FE4FE490F12C082E02C0F594E794C3
:100F20000A94E2F791E0E922FF24F901E154FE4F2F
:100F3000C491D0E002C0D595C7958A95E2F7C170FB
:100F4000DD270115110519F081EE0E947708E114E3
:100F5000F10419F086EE0E9477088D2D0E94760923
:100F6000EF2819F086EE0E940909012B19F081EE95
:100F70000E940909CD2B51F08CE2DF91CF911F9196
:100F80000F91FF90EF90DF900C947609DF91CF9155
:100F90001F910F91FF90EF90DF900895982F9F7011
:100FA0009A50963018F0805D0C946807895AFCCFEF
:100FB000CF92DF92EF92FF926C01EE24FF2420E0AB
:100FC000C114D104E104F10419F0C701B60120E114
:100FD000C72ED82EE92EFF24C114D104E104F10458
:100FE00019F0285FC701B6016B017C0154E0F6944B
:100FF000E794D794C7945A95D1F7C114D104E1046A
:10100000F10419F02C5FC701B6016B017C0142E0CD
:10101000F694E794D794C7944A95D1F7C114D104B4
:10102000E104F10419F02E5FC701B601969587958A
:1010300077956795672B682B692B09F02F5F822FB7
:10104000FF90EF90DF90CF9008950C94CD0581E054
:1010500008950C9427080895CF93C82F0E9425085F
:101060008C2FCF910C942908CF93DF93CDB7DEB7A7
:101070002B970FB6F894DEBF0FBECDBF4F835887B6
:1010800069877A878B8761110E94BE111E821D823B
:1010900085E0FE013796DE01119601900D928A954A
:1010A000E1F78C819D81892B89F449815A816B817B
:1010B0007C818D819E810E94BB102B960FB6F89487
:1010C000DEBF0FBECDBFDF91CF91089589819A8198
:1010D00089238F3F51F3CE0101960E94E2068111D0
:1010E000E4CFEBCFFC01808191810C94F10DCF9383
:1010F000C82F882309F48BC08238C1F40E941B29B1
:1011000081FD85C089E30E9455110E94EE112FEFE9
:1011100081EE94E0215080409040E1F700C0000053
:1011200089E30E945C11CF910C94EE118338A1F4F5
:101130000E941B2980FD6BC083E50E9455110E940F
:10114000EE112FEF81EE94E0215080409040E1F7C6
:1011500000C0000083E5E5CF8438A1F40E941B297C
:1011600082FD55C087E40E9455110E94EE112FEFB9
:1011700081EE94E0215080409040E1F700C00000F3
:1011800087E4CFCF8CEF8C0F813A90F46C2F809155
:101190000001909101010E949229882329F08C2F4F
:1011A0000E945C110E94EE118C2F0E945511BBCF42
:1011B00080E28C0F883048F4C77081E001C0880F4E
:1011C000CA95EAF70E949E11AECFEBE5EC0FE33033
:1011D00040F4F0E0E35AFE4F808190E0CF910C9410
:1011E0005229E8E5EC0FE73150F4F0E0EE0FFF1F75
:1011F000E15DFE4F80819181CF910C946829CD3EB5
:1012000030F08C2F0E942A18CF910C94FD18CF91AA
:101210000895882309F452C0823871F40E941B2972
:1012200081FF4CC089E30E9455110E94EE1189E3B1
:101230000E945C110C94EE11833859F40E941B2912
:1012400080FF3CC083E50E9455110E94EE1183E5AA
:10125000EFCF843859F40E941B2982FF2FC087E406
:101260000E9455110E94EE1187E4E2CF9CEF980F87
:10127000913AF0F290E2980F983050F4877091E034
:1012800001C0990F8A95EAF7892F0E94A411D2CF45
:101290009BE5980F933020F490E080E00C94522965
:1012A00098E5980F973120F490E080E00C9468293D
:1012B0008D3E20F00E9484180C94FD1808951F9311
:1012C000CF93DF93182FEB010E947708209731F41A
:1012D000812FDF91CF911F910C9409098FE99FE035
:1012E0000197F1F700C000002197F0CF70E060E0B7
:1012F000893311F460E570E00C945F09882321F0D4
:101300000E949E110C94EE110895882321F00E94F2
:10131000A4110C94EE110895BF92CF92DF92EF9238
:10132000FF920F931F93CF93DF936C01D62FC72F9C
:10133000FC011281058102950F700E947311E82E45
:101340008823A1F0E12E112389F08C2F807F803437
:1013500029F080E28D0FE12C883040F082E00E947D
:101360003F120E94731191E0E82EE926BC2EB29440
:101370009FE0B922EB2DF0E0E451FD4C0C94483293
:101380000C2F0F70C07F11F00295007F1123A9F080
:10139000002359F080E28D0F883010F0D11109C080
:1013A000802F0E949E110E94EE118D2F0E947708BF
:1013B00014C0802F0E94B111F6CF8D2F0E94090911
:1013C000002359F080E28D0F883010F0D1112CC02D
:1013D000802F0E94A4110E94EE112B2D2850330B58
:1013E0002430310520F40E941B290E942C08EE2095
:1013F00009F49EC10E946F1180FD9AC1F60112820C
:101400000E9469110E94C00CC6010E94B90B0E9483
:101410006911DF91CF911F910F91FF90EF90DF90B5
:10142000CF90BF900C94E10C802F0E94B711D3CFC6
:10143000FC2FFF70FF2EC07FC03219F0F29480EFB6
:10144000F822DD2369F0D13049F1112391F1002315
:1014500051F1F601858180FFA8CF8F70858323C06D
:10146000112381F0011106C00E94D1118F290E9421
:101470007E09B3CF0130C1F70E94D1118F290E949C
:10148000D711ABCF011106C00E94E4118F2D0E942D
:101490008509A3CF013009F4A0CFF6CF112329F09D
:1014A000063008F09ACF8F2DE2CF053008F095CFA7
:1014B000EDCF002359F3D93349F4FFEF27EE33E0A2
:1014C000F15020403040E1F700C000008D2F0E9415
:1014D000090983CF8C2F86958695837069F08130BA
:1014E00009F07BCF8D2F9C2F9370111102C090E0DB
:1014F00080E00E94682971CF8D2F9C2F937011116D
:1015000002C090E080E00E94522967CF8D2F112306
:1015100029F00E942A180E94FD185FCF0E948418AB
:10152000FACF8C2F837009F041C0111156CF4D2F87
:10153000429546954770440F440F0D2F0F7010E0F1
:1015400030E020E0042E04C0000F111F221F331FC3
:101550000A94D2F760E070E0CB01D4FF0FC06FE0D7
:1015600070E080E090E004C0660F771F881F991F2D
:101570004A95D2F76095709580959095C695C695D9
:10158000C370602B712B822B932BC23049F058F41F
:10159000C13019F00E94720C20CF0E94600C1DCF48
:1015A0000E94840C1ACF0E945E0C17CF86951123DF
:1015B00011F08C2F8170882309F40FCF4D2F4295A5
:1015C00046954770440F440F0D2F0F7010E030E028
:1015D00020E0042E04C0000F111F221F331F0A94A5
:1015E000D2F760E070E0CB01D4FF0FC06FE070E095
:1015F00080E090E004C0660F771F881F991F4A950E
:10160000D2F76095709580959095C695C695C370F4
:10161000602B712B822B932BC23049F058F4C130D0
:1016200019F00E94370DD9CE0E94250DD6CE0E940A
:10163000490DD3CE0E949A0CD0CECF70112329F041
:101640008C2F0E94C00C8D2F12CF8D2F0E948509E8
:101650008C2F0E94E10CC1CED23F89F160F4D03FC3
:10166000C9F0D13F29F1112309F442C001119DCEE7
:101670008C2F8F7121C0D33F39F1D43FA1F71123B3
:1016800069F1CF718C2F0E94C00C63E08C2F0E94F7
:101690002412A3CE112341F0053008F09ECE8C2FEA
:1016A0008F710E94040D99CE063008F096CEF7CFC8
:1016B0008C2F8F71112369F20E94C00C8ECE8C2F5B
:1016C0008F711123C9F3C5CF112329F08C2F8F718E
:1016D0000E94AB0C82CE0E94A60C7FCE81E00E94BD
:1016E0003F12023008F479CE82E00E943F1275CE9C
:1016F000002359F0D93309F0E9CE8FEF97EEE3E0FC
:1017000081509040E040E1F7DFCE8C2F8F71A1CF68
:101710004C2F4F706D2FC6010E94C6050E941F0EF0
:101720005CCE4C2F4F706D2FC6010E94131455CE06
:10173000DF91CF911F910F91FF90EF90DF90CF90AD
:10174000BF9008950F931F93CF93DF93EC016881AF
:1017500079818A810E94FB0D8C010E945B0D0E94A1
:101760005D0CB801CE01DF91CF911F910F910C94C8
:101770008C09CF93DF93EC018B819C81892B29F01D
:101780008881998189238F3F59F4DF91CF91089502
:10179000CE010E94A20BCE01DF91CF910C94E40602
:1017A000CE010E9409078111F3CF0E947311882393
:1017B00061F38A81882349F382E0DF91CF910C9411
:1017C0003F12882321F00E94B1110C94EE1108956C
:1017D000882321F00E94B7110C94EE11089590E037
:1017E00080E00E94522990E080E00E9468290E94D7
:1017F000BE110E94CE110E94EE110E94241A0C9478
:10180000FD180E9463110C94EF0B0E94AE110C9412
:10181000010CE92FE295EF70E250EE3070F4F0E049
:10182000E450FD4C0C944832803F19F020F4883E7F
:1018300020F481E00895843FE1F380E00895883E3C
:10184000C0F3813FD1F7F5CF93FB882780F9089546
:10185000FC01808191810E94F10D0C94090CCF93C1
:10186000DF9300D000D00F92CDB7DEB70F900F906E
:101870000F900F900F90DF91CF910895CF93DF934A
:1018800000D000D000D0CDB7DEB726960FB6F894C2
:10189000DEBF0FBECDBFDF91CF91089508950C94A8
:1018A0004E0C0E944F0C6093EB017093EC018093FF
:1018B000ED019093EE010C94EF0B08950C94510CF4
:1018C0000F931F930091EB011091EC012091ED011A
:1018D0003091EE01602B712B822B932B1F910F9176
:1018E0000C94510C0F931F930091EB011091EC019C
:1018F0002091ED013091EE01602371238223932327
:101900001F910F910C94510C0F931F930091EB01B9
:101910001091EC012091ED013091EE0160277127CB
:10192000822793271F910F910C94510C0C944E0C0D
:101930000C94960C0E94980C6093E7017093E80158
:101940008093E9019093EA010C94EF0B60E070E062
:10195000CB010C949A0C0F931F9341E050E060E090
:1019600070E08A019B0104C0000F111F221F331F6A
:101970008A95D2F7C901B8011F910F910C949A0C66
:101980000F931F9341E050E060E070E004C0440F0B
:10199000551F661F771F8A95D2F78091E7019091B6
:1019A000E801A091E901B091EA018A019B01082BAD
:1019B000192B2A2B3B2BC901B8011F910F910C94B5
:1019C0009A0C0F931F9341E050E060E070E004C078
:1019D000440F551F661F771F8A95D2F7CB01BA01B6
:1019E00060957095809590950091E7011091E801C0
:1019F0002091E9013091EA0160237123822393232E
:101A00001F910F910C949A0C0F931F9341E050E09B
:101A100060E070E004C0440F551F661F771F8A9571
:101A2000D2F78091E7019091E801A091E901B0918E
:101A3000EA018A019B01082719272A273B27C901A8
:101A4000B8011F910F910C949A0C0F931F93009162
:101A5000E7011091E8012091E9013091EA01602B42
:101A6000712B822B932B1F910F910C949A0C0F9337
:101A70001F930091E7011091E8012091E901309155
:101A8000EA0160237123822393231F910F910C9409
:101A90009A0C0F931F930091E7011091E801209198
:101AA000E9013091EA0160277127822793271F916E
:101AB0000F910C949A0C0895990F990F890F982FF4
:101AC000977041E001C0440F9A95EAF78695869594
:101AD000869595E0899FF0011124E352FE4F30E096
:101AE00020E070E05191DF011197CB01022E02C07E
:101AF000969587950A94E2F78170819585278423CE
:101B000085278C932F5F3F4F2530310559F7089576
:101B1000990F990F890F982F9770869586958695BE
:101B200025E0829FF0011124E352FE4F50E040E097
:101B300080E0219130E0092E02C0369527950A9465
:101B4000E2F721703327042E01C0220F0A94EAF72E
:101B5000822B4F5F5F4F4530510559F70895BF9273
:101B6000CF92DF92EF92FF920F931F93CF93DF9369
:101B70008C01C090E701D090E801E090E901F0907D
:101B8000EA018091EB019091EC01A091ED01B091FF
:101B9000EE01C82AD92AEA2AFB2ACFE1D0E0BC2EDE
:101BA000D701C6010C2E04C0B695A79597958795C9
:101BB0000A94D2F780FD0EC0219788F7B12C8B2DA7
:101BC000DF91CF911F910F91FF90EF90DF90CF9019
:101BD000BF900895B8018C2F0E944315019761F3BF
:101BE000EECFCF93DF93EC010E94AF0DBE01DF91EA
:101BF000CF910C9443151F93CF93DF93EB019091FA
:101C0000DC01992331F0CB01DF91CF911F910C942E
:101C1000F10D882379F0CB010E94AF0D182F682FAA
:101C2000CE010E945C0DBE01812FDF91CF911F91EB
:101C30000C944315CB010E94880D182FF4CFEF921E
:101C4000FF920F931F93CF93DF938C01892B81F029
:101C5000F12CEE24E394E8012196F8018491843775
:101C600070F4843008F05FC08130B1F08230A1F1AF
:101C7000DF91CF911F910F91FF90EF9008958537DD
:101C800009F44CC008F43DC09CE7980F903780F7EA
:101C90008F770E94090949C00E5F1F4FFE01849192
:101CA00090E2980F983060F48770FE2D01C0FF0F0E
:101CB0008A95EAF78F2F0E94C1110E94EE1102C08F
:101CC0000E9477088F2D815030F2EFE9FFE03197C5
:101CD000F1F700C00000F7CF0E5F1F4FFE018491A7
:101CE00090E2980F983050F48770FE2D01C0FF0FDE
:101CF0008A95EAF78F2F0E94C711DFCF0E9409094A
:101D0000E1CF0E5F1F4FFE01C491C150D8F28FE9A1
:101D10009FE00197F1F700C00000F7CF0E5F1F4F63
:101D2000FE01F490CFCF0E9477088E01CBCF1F9396
:101D3000CF93DF93C091EF0116E08091F0018C13F7
:101D400004C0DF91CF911F910895D0E01C9FF00156
:101D50001D9FF00D1124EF50FE4F40815181628193
:101D60007381848195810E943E0C2196C770E5CFD6
:101D7000409121025091220260912302709124022D
:101D800080912502909126020C943E0C1F93CF93D4
:101D9000DF9380912602807FA9F48091230288231B
:101DA00089F08091EF01C091F00160912102709162
:101DB0002202A0912402B0912502D62FD72316E04B
:101DC000C81304C0DF91CF911F91089590E0109740
:101DD00011F0DF3F19F401968770F2CF189F900140
:101DE000199F300D1124F901EF50FE4F4181471327
:101DF000F2CF40814613EFCF42814111ECCF4381B6
:101E000054814A1B5B0B483C510528F78091260200
:101E10008F70806180932602F901EA50FE4F808125
:101E20008F708061808381E292E00E94B90BDF9124
:101E3000CF911F910C94970EAF92BF92CF92DF92E9
:101E4000EF92FF920F931F93CF93DF93CDB7DEB73F
:101E500061970FB6F894DEBF0FBECDBF8C0185E051
:101E6000F801DE011D9601900D928A95E1F7F801C7
:101E7000E28081E2C82E82E0D82E60912402709127
:101E800025026115710509F45AC190912102209132
:101E90002202892F82238F3F09F451C14081518151
:101EA000A380B480F0902302F501E61BF70BFF201E
:101EB00009F4F6C080912602382F307FE83CF10506
:101EC00008F0AFC0311179C0FE2C251323C0941344
:101ED00021C0E1101FC08F708061809326020E9494
:101EE000B80EC6010E94B90B80912602F8018583C5
:101EF0008F2D61960FB6F894DEBF0FBECDBFDF9178
:101F0000CF911F910F91FF90EF90DF90CF90BF90F6
:101F1000AF900895AB2829F0842F85238F3F09F0D7
:101F200027C180E0F82FF170DF2E80FF3CC0809148
:101F3000EF012091F00136E0821315C04D875E87D6
:101F40008D859E850E94F10D292F22952F702230BC
:101F5000F0F0243018F59F70F1F0F8019581907F32
:101F6000D1F4D12C1EC090E0389FF001399FF00DC4
:101F70001124EF50FE4F6181651306C06081641328
:101F800003C06281E6120FC001968770D5CF9F70A3
:101F900011F0882331F3805E883018F3C8010E9465
:101FA000B90BFD2CA5CFEE2009F4A2CF809126021B
:101FB000816080932602F12C9BCF251306C09413D9
:101FC00004C0F801EE2009F487C0C8010E94280C63
:101FD000882319F1EE2009F180912602803270F0F9
:101FE000209121023091220238872F831986BB86E7
:101FF000AA868C87CE0107960E94B90B86E0F8016D
:10200000A1E2B2E001900D928A95E1F70E94C60E1E
:102010000E94B80EFF24F3946BCFC8010E94B90B45
:10202000F9CF311113C07A2DB98AA88A6E2D89890A
:102030000E942F0C81E292E00E94B90B86E0F6012B
:1020400011928A95E9F70E94B80EB5CF25130FC0FB
:1020500094130DC0E1100BC0F8018583C8010E94E4
:10206000B90B86E0F60111928A95E9F741CFC801D4
:102070000E94280C882389F2EE2079F280912602B2
:10208000803208F4BBCF20912102309122023A83A2
:1020900029831B82BD82AC828E83CE010196ACCF98
:1020A000E83CF10508F03EC0FE2CEE2009F4B5CF67
:1020B00025132AC0941328C08091260280FD1BC0DE
:1020C000982F907FC1F0F8018583903F31F0982FD1
:1020D000907F905F8F70892B8583C8010E94B90B18
:1020E00086E0F801A1E2B2E001900D928A95E1F755
:1020F0000E94B80EFDCE86E0F801A1E2B2E00190A8
:102100000D928A95E1F7F4CEC8010E94280C811146
:1021100075CF80912602816080932602C8010E94BB
:10212000B90BE6CE7A2DB98AA88A6E2D89890E94CC
:102130002F0C86E0F60111928A95E9F7D9CFEE20AF
:1021400009F46BCFC8010E94280CF82E882309F4EB
:1021500064CF86E0F801A1E2B2E001900D928A9589
:10216000E1F781E292E00E9472080E94C60EC0CFA1
:1021700081E08E25D7CE1F93CF93DF93CDB7DEB707
:102180002C970FB6F894DEBF0FBECDBF4F83588794
:1021900069877A878B879C87CE0107960E941C0FE0
:1021A000882369F08A859B85892B39F04F81588572
:1021B000842F85238F3F09F071C016E05FC086E051
:1021C000FE013796DE01119601900D928A95E1F796
:1021D0008A859B85892B89F38F81988589238F3FF9
:1021E00061F32091F00130E0C901019687709927D1
:1021F0004091EF014817190671F40E94050C1092E6
:10220000F0011092EF0186E0E1E2F2E0DF011D92C1
:102210008A95E9F7D2CF96E0929FD001939FB00DB7
:102220001124AF50BE4FFE01319601900D929A9548
:10223000E1F78093F0010E94970EBFCF819FC0010C
:1022400011248F509E4F0E941C0F8823E9F0E091CB
:10225000EF011E9FF0011124EF50FE4F408151818C
:1022600062817381848195810E943E0C8091EF018F
:1022700090E00196877099278093EF018091EF019C
:102280009091F0018913DACF2C960FB6F894DEBF47
:102290000FBECDBFDF91CF911F91089569857A85DB
:1022A0008B859C850E943E0C88CF682F8091000111
:1022B000909101010C94122A682F80910001909155
:1022C00001010C941D2A80910001909101010C9450
:1022D000282A809127028595859585950895809176
:1022E00027028770089590912702977081E009F482
:1022F00080E008959091DD0292FB222720F92817B3
:1023000051F080FB92F99093DD028091DC02909174
:10231000DD020C94821208958091DD0282FB8827F1
:1023200080F991E089270C947A1181E00C947A115C
:1023300080E00C947A1180914B02089590914B02A9
:10234000892B80934B020895809590914B0298239E
:1023500090934B02089580934B02089510924B0284
:10236000089590914A02892B80934A02089580959E
:1023700090914A02982390934A02089510924A023B
:10238000089590914902892B809349020895809580
:10239000909149029823909349020895109249021E
:1023A000089580912802089508950C94D411909175
:1023B000DD0292FD08C090912802981721F08093C9
:1023C00028020C94D511089580912802882329F0C1
:1023D0001092280280E00C94D5110895E09100013C
:1023E000F091010180914B028083E0910001F09116
:1023F0000101808190914A02892B8083E091000144
:10240000F0910101808190914902892B8083909104
:102410002802992381F0E0910001F091010180816F
:10242000892B808380910001909101010E947E2977
:1024300081110E94E41180910001909101010C949E
:102440002A2908950C9421129091DD0292FD10C06A
:1024500098E0899F90011124622B609327020E94CB
:10246000C00C809127028595859585950C94221244
:102470000C94C00C1092270280E00C9422129091D0
:1024800027028095892380932702282F277039F40B
:10249000282F082E000C330B9217130621F490916D
:1024A000DD0292FF07C08595859585950E94E10C18
:1024B0000C943A1208956FEF7FEF90E080E00C9457
:1024C000D43290E080E00E94B03221E0893E9E4FFD
:1024D00009F020E0822F089582E090E00C94A2326F
:1024E00083E090E00C94A232CF9384E090E00E94CD
:1024F000A232C82F82E290E00E94A232982F8C2F45
:10250000CF910895CF93C92F682F84E090E00E9467
:10251000B6326C2F82E290E0CF910C94B632AB01D0
:10252000BC018FE090E00C94C832AB01BC0183E1A8
:1025300090E00C94C83260E070E0CB010C949512EE
:1025400060E070E0CB010E948F120C949B1269EE48
:102550007EEF90E080E00E94D43260E082E090E084
:102560000E94B63260E083E090E00E94B6321092A2
:10257000EB011092EC011092ED011092EE0160E07F
:1025800084E090E00E94B63260E082E290E00E9437
:10259000B63260E085E090E00E94B63260E086E00E
:1025A00090E00E94B6326FEF87E090E00E94B63272
:1025B00040E050E0BA0188E090E00E94C83260E05C
:1025C0008DE090E00E94B63240E050E0BA0188E130
:1025D00090E00E94C83260E087E190E00E94B6324D
:1025E00040E050E0BA018CE190E00E94C83270E017
:1025F00060E080E290E00E94D43240E050E0BA0116
:1026000088E190E00E94C8320C94A0120C94A712AA
:10261000682F8EE090E00C94B6320E94C92A609335
:1026200058027093590280935A0290935B02609310
:102630005402709355028093560290935702089566
:102640000E94C92A609358027093590280935A02DB
:1026500090935B02609350027093510280935202F8
:1026600090935302089585B7806885BF85B78068C9
:1026700085BF0895089508950C943A1308950C9415
:102680003E130E94331381E296E10E942C2B0E949C
:102690003B130C943C1381E008950C944B13089564
:1026A00008950E944F130C9450130E94B42A0E9464
:1026B000141780E00E949C220E947A1F0E945421DD
:1026C0000C943F139F92AF92BF92CF92DF92EF9202
:1026D000FF920F931F93CF93DF93CDB7DEB72A9767
:1026E0000FB6F894DEBF0FBECDBF0E942817C82ECC
:1026F00081110E940D138DE4A82E82E0B82E10E007
:1027000000E0902E802F0E946616E82EF501F190D1
:102710005F01F81609F45EC080915C0281FD0E94A1
:102720006C168F2D8E25D12CFF24F394982F9F218A
:1027300009F44BC00E944D13882399F0DE829F82DA
:10274000EF2081E009F480E088870E94BD2A816043
:10275000782F9A8789874E815F8168858A850E9454
:102760003408F801E35BFD4F8081F826F0820E9477
:10277000AD1F0E94BC21182F81110E9420130E94BE
:102780001325C11001C011110E94DC230E941819E9
:102790000E941B2990914C02891799F10E941B29D4
:1027A00080934C022A960FB6F894DEBF0FBECDBFC1
:1027B000DF91CF911F910F91FF90EF90DF90CF901D
:1027C000BF90AF909F900C942C08D394FF0CF4E032
:1027D000DF12ACCF0F5F1F4F0330110509F091CF0F
:1027E0008FEF89838A831B820E94BD2A8160782FA4
:1027F0009D838C8349815A816B818D810E9434082D
:10280000B6CF2A960FB6F894DEBF0FBECDBFDF91CC
:10281000CF911F910F91FF90EF90DF90CF90BF90DD
:10282000AF909F9008950895E72FF0E093E0899F7F
:10283000E00DF11D1124EE0FFF1FEE0FFF1FE60F3D
:10284000F11DEE0FFF1FE15FFE4F859194910895FA
:10285000FC01EE0FFF1FE151FE4F85919491089509
:10286000CF93DF930E944715EC01811520E5920775
:1028700008F042C0811530E4930708F0BDC0883EDF
:10288000910528F5803E910508F09DC0883A910594
:1028900088F4853A910508F08FC08130910509F4DC
:1028A00092C0009709F48FC0049708F08CC0D0E064
:1028B000C0E089C08F3B910508F489C0805C910914
:1028C000C03CD105A0F30E942814EC017CC0811506
:1028D000904250F4C11581E0D80708F074C0CD3E95
:1028E000D10528F3D0656FC0C11590E3D90708F072
:1028F00079C0CE019F70E7CF811525E5920758F585
:10290000811534E5930708F0A6C0811542E59407C8
:1029100050F4C11581E5D80708F471C0DC2FCC272D
:10292000C16FD06A50C0982F969596959E012370DE
:102930003327C115D34508F07FC0C1E0D0E002C005
:10294000CC0FDD1F2A95E2F720E2929FC0011124EF
:10295000C82BD92B6FC0C11589E5D807A8F4C115BC
:1029600098E5D90708F07CC0C11526E5D20708F024
:102970009ECF8C2F0E94DE15C82FD0E0DC2FCC27F5
:10298000CC27DF71D0621FC0C1153AE5D30708F428
:102990006CC0CE0190568115904208F088CF8D2FE3
:1029A0008F710E94DE1590E0982F882788279F71ED
:1029B0009C012C2BE901E6CFC55AD0E0C257DE4F6F
:1029C000C881D0E0D064CE01DF91CF910895C85A7C
:1029D000D0E0CC0FDD1FC05ADE4F0990D881C02D4A
:1029E000D464F1CFCE019927D3FF03C0EC01D86C9A
:1029F000EACFEC01D06CE7CFDF70D06AE4CFCE0134
:102A0000E4E096958795EA95E1F783702C2F26955B
:102A10002695237090E2299F90011124382B8C2F4A
:102A20008370C1E0D0E002C0CC0FDD1F8A95E2F7D1
:102A3000C22BD32BDC68C7CFC1E0D0E002C0CC0FE3
:102A4000DD1F2A95E2F730E2939FC0011124C82BC5
:102A5000D92BDA68B8CFD82FCC27C46FD06AB3CFC0
:102A6000DC2FCC27C06FD06AAECF8C2F8F700E9426
:102A7000DE1534E0D695C7953A95E1F7CF709C2FD7
:102A8000EC01D069A0CF0E9414140C943014823849
:102A90009105B1F1B0F48133910509F475C048F4A2
:102AA0008932910509F469C08A32910509F473C02D
:102AB00008958533910509F459C08933910501F1D1
:102AC0000895833E9105A9F138F4803E9105F9F00F
:102AD000823E910549F10895863E9105A9F1873E10
:102AE0009105C9F1843E910519F52091DD0221FF80
:102AF0001FC08091DC0284FD14C087EE90E0089531
:102B00002091DC022370A1F080EE90E008952091E6
:102B1000DC0220FD47C03091DD0230FF09C024FFF8
:102B200044C090E080E004C02091DC0222FDF7CF99
:102B300008952091DC0222FD3BC03091DD0230FD82
:102B4000E3CF24FFF5CFEDCF2091DC0223FFF0CFC0
:102B500024FDE7CFD2CF2091DC0223FD2CC03091A1
:102B6000DD0231FFEECF84EE90E008952091DC028B
:102B700025FFDECF89E290E008952091DC0225FF59
:102B8000D7CF85E390E008952091DC0226FFD0CFD7
:102B90008AE290E008952091DC0226FFC9CF81E30C
:102BA00090E0089589E390E0089583EE90E0089521
:102BB00082EE90E0089586EE90E008959091DC0218
:102BC00092FF06C0282F28712830F9F4877F84608F
:102BD00093FF06C0282F28712831F1F4877E846185
:102BE0002091DD0220FF06C0382F38713830D9F42B
:102BF000877F816021FF06C0282F28712831D1F4FA
:102C0000877E816194FD877E0895282F247124306A
:102C1000F9F68B7F8860DCCF282F2471243101F7EF
:102C20008B7E8861DDCF382F3171313019F78E7F7F
:102C30008860E0CF282F2171213121F78E7E8861B5
:102C4000E1CF80E008950C945B120E9428172FEFCB
:102C500086E791E0215080409040E1F700C00000FD
:102C60000E94281780E00E94661680FF04C00E9420
:102C700023160C94082B08950C9425160E946112BB
:102C8000811102C00E9406130E946C1280935C02A4
:102C90000E9474129093DD028093DC020E943C1625
:102CA0000E947012682F70E090E080E00E945E0C3D
:102CB0006091E7017091E8018091E9019091EA014A
:102CC0000C94980C0C94C9050C94CA05E82FF0E0FC
:102CD000EF51FD4F80810895089580EA8A95F1F7BC
:102CE000089500C008950C946D16F894E82FE295AD
:102CF000EF70F0E031A1282F2F7081E090E001C04B
:102D0000880F2A95EAF7982F9095932391A392A183
:102D1000892B82A37894089587EF0E94751686EF19
:102D20000E94751685EF0E94751684EF0E94751635
:102D300087E90E94751686E60E94751684E90C9450
:102D40007516DF92EF92FF920F931F93CF93DF934D
:102D5000D82EE92EF62E062F10E00F561E4FE80152
:102D600088818F3F09F458C0F894E82FE295EF70FE
:102D7000F0E021A18F70C1E0D0E0AE0102C0440FAD
:102D8000551F8A95E2F7CA01922F982B91A392A121
:102D90008095892382A378940E9471160F2C01C01C
:102DA000CC0F0A94EAF76C2F7C2F7095A5E9B1E05F
:102DB000ED2DFE2D48E951E0E12C9D9180819F3F52
:102DC00041F1292F22952F7030E0E90128A130E050
:102DD0009F7002C0359527959A95E2F720FD19C09E
:102DE000862B8083EE24E39431964A175B0729F7FC
:102DF000F80180818F3F11F00E9475166E2D8F2D86
:102E0000DF91CF911F910F91FF90EF90DF900C9485
:102E1000731687238083E8CFDF91CF911F910F91A5
:102E2000FF90EF90DF9008950E948C16AEEDB2E017
:102E30001C92E1EEF2E0108211961C921197118221
:102E400012961C92128283E00E9465170C94EF0682
:102E50001F93CF93DF9300D00F92CDB7DEB71982C7
:102E60001A821B8210E0612FCE0101960E94A116EA
:102E70001F5F1430C1F743E050E0BE016F5F7F4F2A
:102E80008EED92E00E94953211E0009709F410E077
:102E9000892B49F089819A81AB818093DE029093DE
:102EA000DF02A093E002212F43E061EE72E08EED9D
:102EB00092E00E9466170E94F706812F0F900F90F4
:102EC0000F90DF91CF911F9108950895FF920F9376
:102ED0001F93CF93DF93F82E092F162FD72FC42FD0
:102EE000222349F081E080935F020E94BD2A9093E3
:102EF0005E0280935D0280915F028823A1F0809141
:102F00005D0290915E020E94D52A059760F0EF2D38
:102F1000F02FA12FBD2FCE0FDF2FD11DEC17FD07F6
:102F200041F410925F02DF91CF911F910F91FF90BA
:102F3000089581918D93F2CF0E943A2A0E949D2C90
:102F40000E94B62C0E94C82C0E945113FBCF809186
:102F5000660280FF12C06091070185E0689FB001A2
:102F60001124759567957595679560387105A8F575
:102F700061157105A1F1862F089581FF09C0609147
:102F8000070185E0689FB001112475956795EDCF25
:102F90006091070182FD0AC0809165028823D1F00B
:102FA0009091060160910701891728F085E0689FDC
:102FB000B0011124DACF869FB001112485E0869FED
:102FC0009001879F300D1124692F70E0C9010E9484
:102FD0001232CBCF65E070E0CECF8FE7089581E06D
:102FE00008958091660280FF0CC06091030170E03B
:102FF00075956795759567956115710549F1862FEA
:10300000089581FF06C06091030170E07595679592
:10301000F3CF6091030182FD0BC09091640299236C
:10302000A1F06091020180910301961738F0682F9A
:1030300070E06038710500F38FE70895899FC00143
:10304000112470E00E941232F4CF61E070E0D7CF1B
:1030500081E008958D3E31F40E94A71781958093F9
:103060006A0208958E3E19F40E94A717F8CF8F3E8A
:1030700031F40E94A7178195809369020895803FDB
:1030800019F40E94A717F8CF893F29F40E94F1177D
:1030900080936B0208958A3F21F40E94F117819575
:1030A000F7CF8B3F31F40E94F117819580936C022A
:1030B00008958C3F19F40E94F117F8CF9FE0980F04
:1030C000983070F4815F990B21E030E001C0220F4D
:1030D0008A95EAF780916802822B809368020895AE
:1030E0008D3F31F48091660281608093660208957D
:1030F0008E3F21F4809166028260F7CF8F3FB9F74F
:10310000809166028460F1CF409169028D3E59F44E
:1031100080916A0287FF0DC010926A0241110BC0B4
:103120001092650208C08E3E81F480916A021816E2
:103130009CF3442381F080916B0290916C02892B67
:1031400009F05AC01092640208958F3E49F447FF77
:10315000F0CF1092690280916A028111ECCFE0CF2A
:10316000803F19F41416ACF3E4CF90916B02893FC1
:1031700029F41916F4F610926B02DBCF8A3F19F48A
:1031800097FFD7CFF8CF90916C028B3F29F497FF30
:10319000D0CF10926C02CDCF8C3F19F41916CCF31E
:1031A000C8CF9FE0980F983090F4815F990B21E091
:1031B00030E0B90102C0660F771F8A95E2F7CB01B4
:1031C000809590916802892380936802B2CF8D3FE9
:1031D00031F4809166028E7F80936602AACF8E3F83
:1031E00021F4809166028D7FF7CF8F3F09F0A1CF48
:1031F000809166028B7FF0CF08950E94BD2A9C01CA
:103200009091690280916A02982B21F030936302B9
:103210002093620290916B0280916C02982B21F0B6
:10322000309361022093600287E692E00C94442977
:10323000EF92FF920F931F93CF93DF9300D000D0B4
:1032400000D0CDB7DEB786E0E7E6F2E0DE0111960A
:1032500001900D928A95E1F7E0906902F0906A0280
:1032600000916B0210916C021092690210926A0236
:1032700010926B0210926C028E2D8F2991F080912A
:103280006202909163020E94D52AAC01909165027E
:10329000992309F43FC0809108018417150608F4AA
:1032A00047C0802F812B91F0809160029091610244
:1032B0000E94D52AAC0190916402992309F477C049
:1032C000809104018417150608F47FC0809169027B
:1032D00090916A02892B90916B02892B90916C02DC
:1032E000892B11F00E94FD1886E0FE013196A7E6B9
:1032F000B2E001900D928A95E1F726960FB6F89408
:10330000DEBF0FBECDBFDF91CF911F910F91FF9018
:10331000EF900895209109018AE0289F90011124DF
:103320002417350708F0BDCF9F5F9093650202C058
:103330009F3FD1F7EE2059F00E94A7179FEF1E1470
:103340000CF491E0899F802D112480936902FF2065
:1033500059F00E94A7179FEF1F140CF491E0899F6A
:10336000802D112480936A0230916902332309F47D
:1033700098CF20916A02222309F493CF45EB3403BE
:10338000C0011124992359F09093690245EB24035D
:1033900090011124332339F030936A0282CF81E007
:1033A00080936902F3CF81E080936A027ACF209103
:1033B00005018AE0289F900111242417350708F0A1
:1033C00085CF9F5F9093640202C09F3FD1F7002397
:1033D00059F00E94F1179FEF10160CF491E0899FAD
:1033E000802D112480936B02112359F00E94F11754
:1033F0009FEF11160CF491E0899F802D112480938A
:103400006C0230916B02332309F460CF20916C027F
:10341000222309F45BCF45EB3403C0011124992327
:1034200059F090936B0245EB240390011124332350
:1034300039F030936C024ACF81E080936B02F3CF76
:1034400081E080936C0242CF86E0E7E6F2E0DF01A4
:103450001D928A95E9F7109265021092640210920B
:1034600066020895EF92FF920F931F93CF93DF931D
:10347000EB01E82FD11110C0442321F0F0E0EA5F06
:10348000FC4FE4916E2F7E2F8E2FDF91CF911F91F5
:103490000F91FF90EF9008950D2F10E0282F30E04E
:1034A000442329F02A5F3C4FF901249130E0F6E0F3
:1034B000CF9FC0011124EFEFF0E0BF010E94FE3169
:1034C000AB018C2F90E0880F991FA5E5A49FB00158
:1034D000A59F700D1124861B970B982F990F980F9D
:1034E000BF01601B710B629FD001639FB00D729F83
:1034F000B00D11248B2F9D9FB0011124672F7727CA
:10350000EF01C61BD70BBE01629FE001639FD00D88
:10351000729FD00D11247F01E91AF108E09EB001DD
:10352000E19E700DF09E700D1124672F7727E61B2A
:10353000F70BE29F8001E39F100DF29F100D112405
:10354000E12F722F4230510599F048F44115510591
:1035500069F04130510581F0EB2F8D2F07C04430C9
:10356000510569F080F046305105B1F76E2F8DCFCF
:10357000E22F7B2F812FFACFE22F7D2FF7CFEB2F7A
:10358000822F712FF3CF7B2F822FED2FEFCF41E0D2
:103590000C94321A08950C94C71ACF93DF93762FA8
:1035A000E901682F842F0E94CB1A798368838A836C
:1035B000DF91CF9108958091E402982F9E7F29F4A6
:1035C000817082608093E40208958A34E8F3817008
:1035D0008864F8CF88E090E00C94AA32CF92DF9212
:1035E000EF92FF926B017C010E94DB1AB701A601EA
:1035F00088E090E0FF90EF90DF90CF900C94C8327D
:10360000E4EEF2E083E0808311828FEF8283838394
:10361000148260817181828193810C94EE1A809171
:10362000E40280FF02C08695089580E0089590919D
:10363000E802933018F49F5F9093E802882351F0DA
:103640006091E4027091E5028091E6029091E702B8
:103650000C94EE1A089581E00C94171B9091E802E7
:10366000992319F091509093E802882351F06091CA
:10367000E4027091E5028091E6029091E7020C94D9
:10368000EE1A089581E00C942E1B70E00C94262114
:1036900060910E018091E40280FF0AC080910D01CB
:1036A00023E0829FC001112487519D4F0C94451B3C
:1036B00080910F019091100123E0829FF00111246D
:1036C000E751FD4F891750F71182108212828F5FE8
:1036D0003396F8CF9091E40290FF14C090910F01BF
:1036E0002091100133E0939FF0011124E751FD4F29
:1036F000921710F00C94481B8183608342839F5F74
:103700003396F6CF0895CF93DF9300D00F92CDB7C5
:10371000DEB79091E40290FF0AC09E012F5F3F4FF9
:103720000E94CD1A4B8169818A810E946A1B0F9089
:103730000F900F90DF91CF910895CF93DF93EC011D
:10374000EC81F0E0EF5FFD4F4491E4EEF2E0628146
:1037500081810E94831B8C818F5F8C83DF91CF914D
:103760000895CF93DF93EC01E4EEF2E043816281B0
:103770008C810E94831B8C818F5F8C83DF91CF9122
:1037800008950F931F93CF93DF9300D00F92CDB77F
:10379000DEB78C0180916D0281110AC09E012F5FFE
:1037A0003F4F4FEF6FEF0E94CD1A8A8180936D02D9
:1037B000F8016481613069F080916D0240E0662318
:1037C00061F040E0623011F440916D0280E060E011
:1037D00004C060916D0240E080E00E946A1BF80125
:1037E000848190E0019663E070E00E94123284834D
:1037F0000F900F900F90DF91CF911F910F9108952F
:10380000AF92BF92CF92DF92EF92FF920F931F93EE
:10381000CF93DF9300D00F92CDB7DEB7182FF62EDF
:10382000042FE22E9091E40290FF29C0E92FE69543
:10383000AE2FB0E0A856BE4F8C91809377029E7F4A
:10384000923059F59E012F5F3F4F812F0E94CD1A74
:103850004B8169818A810E946A1B1093E502F09274
:10386000E6020093E702EE2051F06091E4027091CD
:10387000E5028091E6029091E7020E94EE1A0F9015
:103880000F900F90DF91CF911F910F91FF90EF90CC
:10389000DF90CF90BF90AF900895823019F40091DF
:1038A000E702DBCF863019F41091E502D6CF8930DC
:1038B000D9F3893191F6E9518E2F8170D82EE69592
:1038C000F0E0EF5FFC4FA590B490C12CBB24609159
:1038D0001101C61618F00E94481BBFCF2C2D30E0F6
:1038E000A29EC001A39E900DB29E900D112470E087
:1038F0000E94FE31812FD11013C0860F40910F011D
:10390000420F532F511D9A01220F331F240F351FD1
:1039100027513D4F402F6F2D0E94CD1AC394D7CF12
:10392000861BECCFE4EEF2E09181282F4381628187
:103930008AE0890F0C94001C81E00C94921CE4EE48
:10394000F2E09181282F4381628186EF890F0C94E8
:10395000001C81E00C949F1CE4EEF2E0628121E106
:10396000620F08F46FEF282F438181810C94001CB3
:1039700081E00C94AC1CE4EEF2E0628121E1621B78
:1039800008F460E0282F438181810C94001C81E0C1
:103990000C94BB1CE4EEF2E0438121E1420F08F4F9
:1039A0004FEF282F628181810C94001C81E00C94E0
:1039B000CA1CE4EEF2E0438121E1421B08F440E03E
:1039C000282F628181810C94001C81E00C94D91C09
:1039D00020E00C94001CEF92FF921F93CF93DF9393
:1039E000EC0110E0EE24EA94F12C6091110116171D
:1039F00070F00E94481B9A818C8190FF27C08F5FD6
:103A00008C83DF91CF911F91FF90EF9008952091CB
:103A10000F01422F410F5527551FCA019A01220F4E
:103A2000331F280F391F27513D4F70E0C7010E94F7
:103A30001232962F8C814091E7026091E602199F25
:103A4000800D11240E94CD1A1F5FCFCF8150D8CF97
:103A5000AF92BF92CF92DF92EF92FF920F931F939C
:103A6000CF93DF93FC0182810FEF80FF01E010E034
:103A70004CE0A42E809111011817C8F00E94481B39
:103A800080916F02013009F055C0811102C0809110
:103A90001101815080936F02DF91CF911F910F919F
:103AA000FF90EF90DF90CF90BF90AF900895C091BE
:103AB0000F01C12ED12CCC0DDD2DD11DCE01880FD3
:103AC000991FC80FD91FC751DD4F198218821A825A
:103AD00034E0E32EF12CB12C80916F028B0D8D30F0
:103AE0001CF16A2D0E94F031892F082E000C990BD1
:103AF000C816D90691F48091E7028E9DA0018F9D92
:103B0000500D112455954795559547959E01609107
:103B1000E6028091E5020E94CD1AB00EF1E0EF1AA4
:103B2000F108D1F61F5FA6CF87FFDFCF909111017B
:103B3000890FDBCF90E001966091110170E00E9447
:103B40001232A8CF0F931F93CF93DF9380910F0171
:103B50009091100123E0829FF0011124E751FD4F65
:103B6000891740F1C0E0D3E060911101C61740F120
:103B70000E94481B20910B0180916E02820F80935E
:103B80006E0290910C01920F90930C01191654F44F
:103B9000082E000C990B409111014150550B8417D0
:103BA00095071CF0219520930B01DF91CF911F9178
:103BB0000F9108951182108212828F5F3396D0CFB9
:103BC0000C2F10E070E0C8010E94123220910F010A
:103BD000820F482F50E020916E02022E000C330B12
:103BE00002171307BCF020910C01022E000C330BBE
:103BF000201731077CF08D9F9001112427513D4FF4
:103C00004091E7026091E6028091E5020E94CD1AA0
:103C1000CF5FAACFFA01EE0FFF1FE40FF51FE751A8
:103C2000FD4F118210821282F3CF8F929F92AF923A
:103C3000BF92CF92DF92EF92FF920F931F93CF9399
:103C4000DF93EC014C81042F10E09801D8010E9411
:103C500056329B01AC010E946C324B015C01E0E2E8
:103C6000F0E0E01BF10BA5E5B0E0AC019B010E9488
:103C70006C326B017C019F01DF010E944E329B017F
:103C8000AC010E9477329B01AC01280D391D4A1D01
:103C90005B1DC701B6010E942632F22E822F90E0F2
:103CA00039E23F1560F143E0249F900111243595DE
:103CB0002795122F109500E085E5E82EEF188091EA
:103CC0001101081758F10E94481B9C8181E099233B
:103CD00019F0903219F48FEF80930A0180910A0154
:103CE000890F8C83DF91CF911F910F91FF90EF90FF
:103CF000DF90CF90BF90AF909F908F90089525E573
:103D000030E0B901681B790B9B01220F331F260F8E
:103D1000371F37FFCCCF2F5F3F4FC9CF8E2D01FD0F
:103D20008F2D20910F01622F600F7727771F9B0146
:103D3000220F331F260F371F27513D4F412F609110
:103D4000E6020E94CD1A0F5FBACF0F931F93CF9355
:103D5000DF93EC0110E000E0909111019017110643
:103D600009F06CF40E94481B8C8190E001968170F0
:103D700099278C83DF91CF911F910F910895209106
:103D80000F01A801420F511D9A01220F331F240F6A
:103D9000351F27513D4F4C816091E6028091E5022D
:103DA00096959017110651F04CF0442349F040913C
:103DB000E7020E94CD1A0F5F1F4FCECF4423B9F305
:103DC00040E0F7CFE4EEF2E080818E7F8083608177
:103DD0007181828193810E94EE1A109278022FEFF6
:103DE00080E792E0215080409040E1F700C0000061
:103DF0000C94481B6091E402669570E04BE050E043
:103E000082E191E00E948832892B19F481E080934D
:103E100078020E94BD2A90937102809370020895E7
:103E20009091E40290FF35C09170811128C092609A
:103E30009093E402662351F06091E4027091E502F0
:103E40008091E6029091E7020E94EE1A6091E402EE
:103E5000669570E04BE050E082E191E00E9488328C
:103E6000892BA1F01092780281E080937302409137
:103E7000E7026091E6028091E5020C94E81C85322D
:103E800010F09864D5CF880F982BD2CF0E94FA1EDD
:103E9000EBCF0895682F9091E402969581E0890F09
:103EA000853208F081E00C94101F81E00C944A1FC9
:103EB000682F9091E40296958FEF890F09F484E2C0
:103EC0000C94101F81E00C94581F61E00C94101F9B
:103ED000E4EEF2E080818160808386950C94651F1A
:103EE0008091E40280FD0C94E21E0C94681F60E057
:103EF0000C94101F8091760281112EC00E946112D5
:103F0000811104C00E9406130E94001B0E94EA1A3D
:103F10006093E4027093E5028093E6029093E702D7
:103F20006E7F61F40E94001B0E94EA1A6093E40213
:103F30007093E5028093E6029093E7020E94DB1AF9
:103F4000109278028091E40280FF03C086950E945F
:103F5000771F81E08093760208950F931F93CF938C
:103F6000DF9380917802882309F486C080917702DC
:103F7000E091E402E695E81BE0937202823091F54D
:103F8000F0E0E350FE4FE491CE2FD0E00DE91BE1CD
:103F900080917302882361F0109273020E94BD2AFF
:103FA00090937102809370021092750210927402C5
:103FB0000E94BD2AE0917002F09171028E1B9F0B4E
:103FC0008F3F9F4708F058C0EC0FFD1FF093710220
:103FD000E093700280E792E0F801DF91CF911F91AA
:103FE0000F910994863049F4F0E0E650FE4FE491D9
:103FF000CE2FD0E001EB1BE1CBCF893051F4E69519
:10400000F0E0E950FE4FE491CE2FD0E00BEE1CE142
:10401000BFCF8F3051F4E695F0E0EC50FE4FE491C5
:10402000CE2FD0E008E21DE1B3CF853149F4F0E0B6
:10403000EF50FE4FE491CE2FD0E002EA1DE1A8CF71
:10404000C8E2D0E005E11EE1883109F4A1CF833256
:1040500039F4EFEEF1E0C591D49101EC1BE198CF7A
:10406000C4EFD1E005EA1EE1843209F491CFC0ED3E
:10407000D7E00AEC1AE18CCFDF91CF911F910F911D
:104080000895FA01811101C0FB010994CF93DF93D8
:10409000C82FD62F0E940F1B8C1740F00E940F1BB9
:1040A0008D1720F4DF91CF910C94551F8C2FDF9149
:1040B000CF910C94651F1F93CF93DF93EC01FB010D
:1040C0001281112309F4C0C00E949B118272CD3C61
:1040D000FCE5DF0709F49CC008F044C0C73CECE5F0
:1040E000DE0709F481C0F0F4C43C9CE5D90709F46B
:1040F00071C048F4C33CDC4509F469C0812FDF91ED
:10410000CF911F910895C53C9CE5D90709F467C07C
:1041100049EA5CE16CE97CE1C63CDC4579F70E9448
:10412000412053C0CA3CFCE5DF0709F467C068F4CE
:10413000C83CECE5DE0709F45CC048EB5CE167ECE9
:104140007CE1C93CDC4559F3D9CFCB3C9CE5D90790
:1041500009F459C042E45BE16BE27BE1CC3CDC4515
:10416000F1F2CCCFC23DFCE5DF0709F462C098F460
:10417000CF3C9CE5D90709F454C008F44EC0C03DBB
:10418000FCE5DF0709F452C0C13DDC4509F0B6CFBC
:104190006EE089E048C0C53D9CE5D90709F44FC0F1
:1041A00058F4C33DFCE5DF0709F446C0C43DDC45D7
:1041B00009F0A4CF88E132C0C63D9CE5D90709F4D7
:1041C00041C0CE35DD4509F099CF10E097CF0E9470
:1041D000701FFBCF42E65FE165E57FE1A0CF45E5DB
:1041E0005FE162E67FE19BCF4CE95CE169EA7CE15B
:1041F00096CF47EC5CE168EB7CE191CF45EE5CE16A
:1042000066ED7CE18CCF46ED5CE165EE7CE187CF2D
:104210004BE25BE162E47BE182CF81E00E94651FBB
:10422000D4CF65E082E00E944620CFCF68E086E0F0
:10423000FACF64E18FE0F7CF67E185E1F4CF62E286
:1042400089E1F1CF83E2EACF11E058CF6E9A4EB107
:104250004F7B5EB15064EFB7F8949B01220F331F80
:10426000260F371F280F391F2817390741F4EFBFD2
:104270008FE594E00197F1F700C000000895DC019C
:104280006D91CD0178E05EB9000000C067FF4EB9C6
:10429000660F000000C000C000C04EB900C07A9593
:1042A00091F7E2CF0C94CE05AF92BF92CF92DF92FE
:1042B000EF92FF920F931F93CF93DF93AFECB1E098
:1042C0002DEC31E08DE7A82E82E0B82E61ED71E093
:1042D00041E050E00D91802F82958F7090E0FC01BD
:1042E000C1A10F707A01002E01C0EE0C0A94EAF70A
:1042F000FE2DF095CF23FC01C1A3C2A1CE29C2A3FC
:10430000E90119919E01E12FE295EF70F0E0F1A033
:104310001F706A01012E01C0CC0C0A94EAF7EC2C44
:10432000E094EF20E1A2F2A0FC28F2A2EC0188A127
:1043300090E002C0959587950A95E2F78170E0A11B
:10434000F0E002C0F595E7951A95E2F790E0E0FD00
:1043500092E0892BF50181935F016A177B0709F0D1
:10436000B9CFDF91CF911F910F91FF90EF90DF9028
:10437000CF90BF90AF9008956F927F928F929F924F
:10438000AF92BF92CF92DF92EF92FF920F931F9363
:10439000CF93DF930DE712E08FECC82E81E0D82E8B
:1043A0009DECE92E91E0F92E2BE7822E22E0922E51
:1043B000C9E7D2E0712C612C34E0A32EB12CD801D6
:1043C000EC91EE0FEE0FED938D01D6012D916D0165
:1043D000A22FA295AF70B0E090968C9190E02F70D4
:1043E00002C0959587952A95E2F781709927D701A4
:1043F0004D917D01A42FA295AF70B0E090962C91C5
:1044000030E04F7002C0359527954A95E2F7A90133
:104410004170552720FF02C042E050E0842BE82B7A
:10442000D8011197EC93EF70F0E0E354FE4F8081D8
:10443000F4019081890F808320E0843044F08881EA
:104440008F5F888360E0872D0E94522121E0D40194
:104450008C918D3F44F488818150888361E0872D61
:104460000E94522121E0F4018081082E000C990B5A
:10447000B5010E941232D4018D934D01622A21961A
:10448000B1E07B1210C0862DDF91CF911F910F916B
:10449000FF90EF90DF90CF90BF90AF909F908F9064
:1044A0007F906F9008957724739489CFCF92DF9295
:1044B000EF92FF920F931F93CF93DF936C017B01D9
:1044C00064E670E088E70E941528EC0197FD12C0B1
:1044D00010E000E0F601E00FF11F849164E670E067
:1044E0000E948F28EC01892B29F40F5F1F4F0E15B6
:1044F0001F0581F70E941229CE01DF91CF911F91F4
:104500000F91FF90EF90DF90CF9008950895EDE028
:10451000F3E080E092E0DF019C011D9221503040E9
:10452000E1F7F0931205E09311058FEF9FEF909361
:10453000AB028093AA0208950E9486228093A6026D
:1045400080FD0FC080E88093A5020E940F286DE0D7
:1045500070E08DE194E00E945622892B21F080E0EA
:10456000089580E2F0CF8091A60263E070E081FDC3
:1045700026C08AE194E00E945622892B81F76DE0E3
:1045800070E08AE094E00E945622892B41F70E9455
:10459000C92A605A75418F4F9F4F60930D057093E4
:1045A0000E0580930F05909310050E94872281E0ED
:1045B0008093A9028093A8021092A702089587E130
:1045C00094E0D9CF2091A50236E0839FC001112449
:1045D000629F800D911D1124811522E0920714F035
:1045E00090E080E0835F9C4F9093120580931105CB
:1045F00008952091110530911205275033404091C4
:10460000A502642F70E0C9010E94FE31481B4630AC
:1046100010F4240F311D211582E0380710F030E02E
:1046200020E0235F3C4F309312052093110508953D
:104630001F93CF93DF93162F8A3031F481E0DF91FF
:10464000CF911F910C9492238D3011F480E0F7CF1D
:10465000C0911105D091120596E0FE01AFE7B2E0DE
:1046600001900D929A95E1F7803EC8F086E0FE0138
:1046700011928A95E9F711111EC0C0911105D091D0
:10468000120546E050E0BE018FE792E00E949532AD
:10469000892BF9F4DF91CF911F910C94F922F6E068
:1046A0008F9FB0011124665D7B4F46E050E0CE0144
:1046B0000E947F32E0CFE0911105F09112059F0139
:1046C0002A5F3F4F2E173F07C1F28081809581936B
:1046D000F9CFCD50D340CE0125E0969587952A9508
:1046E000E1F721E030E0A90102C0440F551F8A958F
:1046F000E2F7CA014091AA025091AB02842B952B9C
:10470000259645E0D695C7954A95E1F702C0220F58
:10471000331FCA95E2F7822B932B9093AB028093C1
:10472000AA02B8CFCF93382FE0911105F09112056E
:10473000ED50F3402091A502622F70E0CF010E945E
:10474000FE31281B822F332369F066E00E94E4319A
:10475000C82FC15010F4CF91089560E080E20E940C
:104760001823F7CF9F01280F311D2115324018F073
:1047700080E0F0E0E0E08E0F9F2F911D835F9C4F63
:104780009093120580931105E6CF1F93CF93DF938B
:10479000EC01162FFE018491811104C0DF91CF91AD
:1047A0001F910895612F0E9418232196F3CF0E9434
:1047B000C52381E00C9492238091A902811103C04A
:1047C0008091A80208950E94C92A605A75418F4FAE
:1047D0009F4F60930D0570930E0580930F05909386
:1047E00010058091A8028111EBCF62E070E088E0B3
:1047F00094E00E945622892B19F781E08093A80249
:10480000DFCF2F923F925F926F927F928F929F9213
:10481000AF92BF92CF92DF92EF92FF920F931F93CE
:10482000CF93DF938091A902882369F02091AA0297
:104830003091AB022115310531F08091A70261E082
:1048400070E0882399F0DF91CF911F910F91FF9035
:10485000EF90DF90CF90BF90AF909F908F907F9020
:104860006F905F903F902F9008958F5F082F10E01A
:104870001B01082E02C0220C331C0A94E2F7A90186
:1048800042215321452B89F39091A60290FD44C00B
:104890008295880F807680931F0198013695279521
:1048A0003695279520932201815E809320011092F6
:1048B000230124E630E047E050E06DE171E088E755
:1048C0000E94BE28892B09F0BECFA80125E0440F25
:1048D000551F2A95E1F78091A60280FD2BC0435F0A
:1048E0005C4F04E610E020E230E060E488E70E94DC
:1048F000E528892B09F0A7CF0E94DC23E101C095B0
:10490000D0958091AA029091AB02C823D923D0936D
:10491000AB02C093AA0297CF880F880F880F8093AD
:104920001F0110922201895F8093200183E0809310
:104930002301BFCFE5E8F2E080E2DF011D928A9516
:10494000E9F7A5EDB1E001ED11E089EDC82E81E0B8
:10495000D82E97E0592E772473948D91E8012991F0
:104960008E01240F352F311D235F3C4FE82FF0E0DF
:10497000EB57FD4F90E080E0652C681A872C082EDD
:1049800001C0880C0A94EAF77901A12CE701B990DB
:104990007E01B820662D6A196770962E062E000CCF
:1049A000770BDB2D01C0DD0F9A94EAF771956195C5
:1049B00071096770772701C0B6946A95EAF7BD2A36
:1049C0006081962E9B289082A39468E0A612DECF89
:1049D000019631968830910579F6CA16DB0609F002
:1049E000BCCF04E610E020E230E045E852E07DCFA5
:1049F0008091A8029091A902911103C091E08927AA
:104A00000895882369F062E070E086E094E00E94F7
:104A10005622892B19F08091A80208951092A802BD
:104A20008091A802EBCF0F931F938091A902882356
:104A300019F160E080E00E94E2220E940A060E94D2
:104A400001248091A8028823B9F00E94C92A00910C
:104A50000D0510910E0520910F0530911005601B7A
:104A6000710B820B930B6F3F7F4F8F4F9F4720F44B
:104A70001F910F910C94F8241F910F910895CF93DB
:104A8000DF93EC0197FF0CC0FB018281882341F08A
:104A90000E946A25CE019F770E94C4250E94A52509
:104AA00081E0DF91CF9108958CE090E00E94A232E6
:104AB00090E0B0E0A0E08093130590931405A093DC
:104AC0001505B09316050895609113058CE090E0EC
:104AD0000C94B6320E942729869581708093180520
:104AE00090911305913029F4882319F089E30E94ED
:104AF00076090E949B11809317050E94AE11809148
:104B00001305813089F0882359F0823091F0843088
:104B1000B9F08FE39CE90197F1F700C00000089518
:104B200082EE0E947708F5CF88E193E00E94950617
:104B3000F0CF82EE0E94770887E50E947609E9CFE0
:104B400086EE0E94760988E1F8CF809113058130C6
:104B500071F0882341F0823031F0843099F08091F7
:104B600017050C94AB1182EE0E940909F8CF8CE274
:104B70000E94760980911805882389F389E30E94B1
:104B80007609EDCF88E2FBCF0F931F93CF93DF938E
:104B90008C01CCE0D0E0C8010C2E02C09695879520
:104BA0000A94E2F78F700E94CE072497CC3F8FEFD4
:104BB000D80789F7DF91CF911F910F9108950F9337
:104BC0001F93CF93DF93EC018B01FB01828188233C
:104BD00061F00E949B11CE01825E9C45853091055B
:104BE00020F4809313050E946425B801CE01DF9163
:104BF000CF911F910F910C943F250F931F93CF934B
:104C0000DF93C42FD22FFC0182818823C9F0409307
:104C1000AE020E94BD2A9093AD028093AC0280E266
:104C20008C0F883008F050C0C77081E001C0880F39
:104C3000CA95EAF7DF91CF911F910F910C947E09ED
:104C40001091AE02141335C08091AC029091AD0268
:104C50000E94D52A883C910560F5C0E2CD0F1D1752
:104C6000B9F080E2810F883040F4177081E001C014
:104C7000880F1A95EAF70E948509C83048F481E048
:104C80009D2F977001C0880F9A95EAF70E947E09C0
:104C9000802F0E947609C830B8F4D77081E001C037
:104CA000880FDA95EAF7DF91CF911F910F910C945D
:104CB000850980E28C0F883038F4C77081E001C02C
:104CC000880FCA95EAF7EFCFDF91CF911F910F912F
:104CD00008950F939C01CB01243F4CE5340759F113
:104CE000A8F4293DFCE53F0701F12A3D4CE53407D6
:104CF000D1F1283D3C4591F406E221EE41EE68ED0C
:104D00007CE50E94FD2580E00F910895263FFCE59B
:104D10003F07E9F0B0F0273F3C45F9F0FC01828104
:104D2000882339F11092AE02EFCF07E225EE45EE6F
:104D300069ED7CE5E6CF06E221EE40EE64EF7CE52E
:104D4000E0CF07E225EE44EE65EF7CE5DACF06E240
:104D500021EE42EE66EF7CE5D4CF07E225EE46EE8B
:104D600067EF7CE5CECF08E221E045EE6AED7CE519
:104D7000C8CF81E0C9CFCF93DF93EC01FB018281E3
:104D8000882309F420C1C430FDE5DF07C8F5CB3F17
:104D90009CE5D90730F49E0122503C452431310571
:104DA00098F50E9474129093DD028093DC02C0316A
:104DB000FCE5DF0709F4E0C008F061C0C8309CE5FD
:104DC000D90709F4CBC088F5C430FCE5DF0709F446
:104DD000B3C0E8F4C2309CE5D90709F4A7C08091BC
:104DE000DC028260C330DC4509F4A3C08091DC02A0
:104DF0009091DD020E9482120E94050C80E004C0A6
:104E0000C236EDE5DE0769F2DF91CF91089580911A
:104E1000DC028061C630FCE5DF0709F48AC008F4D3
:104E20008FC08091DC02806284C08091DC028D7F23
:104E3000CC309CE5D90709F47CC070F48091DC0289
:104E40008C60CA30FCE5DF0709F473C008F48AC03F
:104E50008091DC028E7F6DC08091DC02877FCE3036
:104E60009CE5D90709F465C08091DC028B7FCF30C7
:104E7000DC4508F45EC08091DC028F7E5AC0CD3FD5
:104E8000FCE5DF0709F474C040F5C4319CE5D9079F
:104E900009F48AC058F4C231FCE5DF0709F474C094
:104EA00008F46EC08091DC02837F43C0CB3F9CE559
:104EB000D90709F449C008F04DC0C531DC4509F0F7
:104EC00095CF8091DC0282FB992790F921E092270F
:104ED00090FB82F990FB83F92CC0C1308DE5D80797
:104EE00009F458C088F48091DD028360CF3FECE57F
:104EF000DE0769F18091DD028D7FC115DD4538F156
:104F00008091DD028C7F23C0C3308DE5D80709F482
:104F100058C008F452C0C236DD4509F067CF909101
:104F2000DC02892F8F7E94FF806103C08091DC02B8
:104F300081608093DC025ACF8091DC028460F9CFDB
:104F40008091DC028860F5CF8091DD0281608093E2
:104F5000DD024CCF8091DD028260F9CF8091DC02CE
:104F60008064E7CF0E94050C8091DC028068E1CF6D
:104F70008091DD028E7FEBCF8091DC028F7DD9CFD7
:104F80008091DC028F7BD5CF0E94050C8091DC02E2
:104F90008F77CFCF8091DD02982F909591708E7F83
:104FA000892B90FB81F9D3CF0E94050C9091DC02F4
:104FB000892F97FB87F98058BCCF81E00E940813A6
:104FC00015CF80E0FBCF81E01FCFCF93DF93EB01C4
:104FD00086319C4511F50E949B119A81992399F085
:104FE0008A7A91E009F490E09093AF02811109C0B0
:104FF00089E20E9455110E94EE1180E0DF91CF916D
:10500000089585E3F6CF8091AF02811104C089E253
:105010000E945C11F0CF85E3FBCF81E0EFCF1092CF
:10502000B9008CE08093B80008959F92AF92BF9230
:10503000CF92DF92EF92FF920F931F93CF93DF9364
:10504000B82EEB010E94BD2A6C01EE24E394F12CF2
:10505000C431D10560F025E0E22EF12CCF3FDC0712
:1050600031F0CE0164E170E00E94FE317B0184EA00
:10507000A82E94E8992E1092BC00A092BC000E9429
:10508000BD2A8C018091BC0087FF0DC08091B900C2
:10509000887F883039F18091B900887F803111F1A3
:1050A0000FEF1FEF09C00E94BD2A801B910B8E15C8
:1050B0009F0540F30EEF1FEFCF3FDC07E1F2C60183
:1050C0000E94D52A8C179D07B0F2C801DF91CF91BD
:1050D0001F910F91FF90EF90DF90CF90BF90AF9016
:1050E0009F900895B092BB009092BC000E94BD2A90
:1050F0008C018091BC0087FF0AC08091B900887F35
:10510000883111F0803461F610E000E0DECF0E94BB
:10511000BD2A801B910B8E159F0558F3CBCF0F93A3
:105120001F93CF93DF93EB018093BB0084E88093C0
:10513000BC000E94BD2A8C018091BC0087FF11C079
:105140002091B900287F81E090E0283211F490E0AE
:1051500080E0919581959109DF91CF911F910F91F9
:105160000895CF3FDC0741F30E94BD2A801B910BBD
:105170008C179D0708F38EEF9FEFEECFCF92DF9253
:10518000EF92FF920F931F93CF93DF936B018A01EE
:105190007901B9010E941528E6010C0D1D1DC017EB
:1051A000D10761F424E92093BC00DF91CF911F91D6
:1051B0000F91FF90EF90DF90CF90089597FDF2CF81
:1051C000B70189910E948F28EACFCF92DF92EF92A8
:1051D000FF920F931F93CF93DF93C62F6A0179013C
:1051E000B8010E94152897FD0CC0B8018C2F0E94B1
:1051F0008F28E601EC0CFD1CCE15DF0511F097FFA2
:105200000CC024E92093BC00DF91CF911F910F9136
:10521000FF90EF90DF90CF900895B80189910E94A0
:105220008F28EACF84E98093BC0008959093B5025B
:105230008093B4020895E091B402F091B5023097E2
:1052400021F00190F081E02D099480E008950E9402
:105250001B290895E091B402F091B502309799F0BE
:1052600020912E01222359F02091DC0227FF07C054
:10527000DC012C9111962C93119725E02C93028040
:10528000F381E02D09940895E091B402F091B50204
:10529000309739F022E0DC012C930480F581E02D79
:1052A000099408952091B2023091B302281739076A
:1052B00071F09093B3028093B202E091B402F09146
:1052C000B502309721F00680F781E02D099408950A
:1052D0002091B0023091B1022817390771F09093F4
:1052E000B1028093B002E091B402F091B502309720
:1052F00021F00084F185E02D09940895FC01329697
:1053000080912E01882321F08091DC029EE187FFAD
:1053100096E080E0915008F4089521912223D1F382
:105320008F5FF8CF662301F120912E012223F1F047
:105330002091DC0227FF1AC0462F469546954695D8
:105340004E3190F4677021E030E002C0220F331F2D
:105350006A95E2F7840F911DFC01828190E0282379
:10536000392381E0232B69F480E00895FC01329613
:1053700008962191261721F0E817F907D1F7F4CF05
:1053800081E008959C01FC0132969FEF80E04191FD
:10539000461751F09F3F19F4411101C0982F8F5FBC
:1053A0008630A9F79F3F09F40895290F311D97FD15
:1053B0003A95F90162830895FC013296089621918D
:1053C000261303C0DF0111971C92E817F907B9F7FC
:1053D0000895E62FE695E695E695EE3168F4E80F38
:1053E000F92FF11D677021E030E001C0220F6A95AE
:1053F000EAF78281822B82830895E62FE695E6956F
:10540000E695EE3170F4E80FF92FF11D677021E099
:1054100030E001C0220F6A95EAF7209582812823A7
:105420002283089520912E01222329F02091DC026D
:1054300027FD0C94E9290C94C22920912E012223E6
:1054400029F02091DC0227FD0C94FD290C94DC2925
:10545000FC01329680912E01882351F08091DC026C
:1054600087FF06C08EE1DF011D928A95E9F7089556
:1054700086E0F9CF0895089508950C943C2A809110
:105480002105843049F10E943D2A80E00E942C08C9
:105490001092B60288E190E020E40FB6F894A89547
:1054A000809360000FBE2093600083B7817F84608B
:1054B00083BF83B7816083BF7894889583B78E7FDD
:1054C00083BF0FB6F894A89580916000886180939F
:1054D0006000109260000FBE08950895CF930E945F
:1054E0003B2A0E9428170E946D2AC0E08C2F0E9440
:1054F0006616811105C0CF5FC330C1F7CF91089503
:1055000081E0FCCF08950C94822A0E94050C0E9431
:105510001B290E942C080C94832A1F921FB61F92ED
:1055200011248F939F93AF93BF938091B602811103
:1055300013C08091190590911A05A0911B05B09197
:105540001C054196A11DB11D8093190590931A0564
:10555000A0931B05B0931C05BF91AF919F918F91B4
:105560001F901FBE1F90189582E084BD93E095BDEB
:105570009AEF97BD80936E0008952FB7F8948091AD
:10558000190590911A05A0911B05B0911C052FBF1C
:1055900008952FB7F8946091190570911A058091BC
:1055A0001B0590911C052FBF08959C014FB7F894DF
:1055B0008091190590911A05A0911B05B0911C05C9
:1055C0004FBF821B930B089578941F921FB61F92B2
:1055D00011248F939F93AF93BF938091190590915E
:1055E0001A05A0911B05B0911C050196A11DB11DC6
:1055F0008093190590931A05A0931B05B0931C0581
:10560000BF91AF919F918F911F901FBE1F901895D2
:1056100081E08093E00080E28093D8001092C9007E
:105620008FE19EE40197F1F700C0000087E090EB66
:10563000DC0180932A0590932B05A0932C05B09351
:105640002D0588E19CE00FB6F894A8958093600042
:105650000FBE90936000FFCF9093DB018093DA013F
:1056600008958091DA02089590912105943031F5E2
:105670008093B7027093B9026093B80282E080937E
:10568000E9008FEF9091E800815095FD06C095EDFF
:105690009A95F1F700008111F5CF8091E80085FF20
:1056A0000DC050E040E063E070E087EB92E00E94C4
:1056B000532D8091E8008E778093E8000895BC0117
:1056C00084E00C94342BBC0183E00C94342B9C01BB
:1056D00082E08093E9009FEF8091E800915085FD82
:1056E00006C085ED8A95F1F700009111F5CF809104
:1056F000E80085FF0CC050E040E066E070E0C901C2
:105700000E94532D8091E8008E778093E8000895E1
:10571000CF93DF93EC0180912E018823B1F180912A
:10572000DC0287FF32C060E282E08093E9008FEF05
:105730009091E800815095FD06C095ED9A95F1F79E
:1057400000008111F5CF8091E80085FF1BC080919A
:105750002E0170E050E040E0811104C050E040E0D4
:1057600068E070E0CE010E94532D8091E8008E77B2
:105770008093E80080E2FE01AAEBB2E001900D9276
:105780008A95E1F7DF91CF91089568E081E0CDCF70
:1057900080912005811109C00E94E32E0E94402FB4
:1057A0008091E20084608093E200089510922005C9
:1057B000089508950895089542E061EC81E00E9403
:1057C0005F2E42E261EC82E00C945F2E8091230513
:1057D000833009F45FC030F48130C1F1823009F4C4
:1057E0009BC008958A3009F487C08B3009F46DC0DE
:1057F000893009F04EC080912205813209F049C0FC
:105800008091260590912705029708F042C080916B
:10581000E800877F8093E8008091E80082FF35C030
:105820009091F3008091F200029729F48091F100A9
:105830008B7F813021F48091F1008093DA02809196
:10584000E8008B778093E8000C94932E80912205DA
:10585000813AF9F48091E800877F8093E800809195
:10586000260590912705892B61F460E28AEB92E08E
:1058700070E00E94A22D8091E8008B778093E80071
:10588000089560E090E080E0F3CF809121058111E0
:10589000C3CF089580912205813AD9F780912605DA
:1058A00090912705892BA9F78091E800877F809345
:1058B000E8008091E80080FFFCCF80912E0180936A
:1058C000F1008091E8008E77BDCF80912205813272
:1058D00001F78091260590912705892BD1F68091BB
:1058E000E800877F8093E8000E94932E8091240532
:1058F00080932E010C94050C80912205813249F68B
:105900008091E800877F8093E8000E94932E809129
:1059100025058093DB02089580912205813A09F0E4
:10592000B8CF8091E800877F8093E8008091E800FD
:1059300080FFFCCF8091DB02C2CF84B7877F84BF1A
:105940000FB6F894A89580916000886180936000FC
:10595000109260000FBE80E890E00FB6F89480933C
:105960006100909361000FBE0C9441130E94E32EDE
:105970000E94402FE2EEF0E0808184608083789482
:105980000E94C9310E94551384E291E00C941629BB
:1059900080912105853031F480912105853021F0F9
:1059A0000E94852A0C9462130E943F2A80911F0551
:1059B000882391F30E946E2A882371F30E943D2D63
:1059C0000E94050CE9CF0C94E52C292F33272330B6
:1059D000310519F168F42130310509F444C0223051
:1059E000310509F445C090E080E030E020E025C0BA
:1059F0002132310549F122323105A9F780E490E0E6
:105A000029EB3AE061157105C1F086EB90E023E0E7
:105A10003AE06130710589F0E6CF99278130910530
:105A200081F0009729F00297F1F6EAE6F9E002C06A
:105A3000E2EBF9E0849190E09F01FA013183208349
:105A40000895EAE9F9E0F6CF89E090E028EC39E042
:105A50006115710591F389E090E021EE39E0613044
:105A6000710559F3C0CF82E190E021EF39E0E5CF35
:105A70008BE390E026EB39E0E0CF80E189BD82E165
:105A800089BD09B400FEFDCF8091D8008F7D809341
:105A9000D8008091E00082608093E0008091E00077
:105AA00081FDFCCF0895AF92BF92CF92DF92FF921B
:105AB0000F931F93CF93DF936C01EB018A010E9438
:105AC000B22EF82E811123C00115110539F0F8010D
:105AD00080819181C81BD90BC80ED91EB12CA12C75
